{
  "contractName": "citizen",
  "abi": [
    {
      "inputs": [],
      "payable": false,
      "stateMutability": "nonpayable",
      "type": "constructor"
    },
    {
      "constant": true,
      "inputs": [
        {
          "internalType": "uint256",
          "name": "",
          "type": "uint256"
        }
      ],
      "name": "auths",
      "outputs": [
        {
          "internalType": "address",
          "name": "authorityAddress",
          "type": "address"
        },
        {
          "internalType": "string",
          "name": "authorityName",
          "type": "string"
        },
        {
          "internalType": "uint256",
          "name": "authorityId",
          "type": "uint256"
        },
        {
          "internalType": "uint256",
          "name": "authWeight",
          "type": "uint256"
        }
      ],
      "payable": false,
      "stateMutability": "view",
      "type": "function"
    },
    {
      "constant": true,
      "inputs": [
        {
          "internalType": "uint256",
          "name": "",
          "type": "uint256"
        }
      ],
      "name": "citizens",
      "outputs": [
        {
          "internalType": "address",
          "name": "citizenAddress",
          "type": "address"
        },
        {
          "internalType": "string",
          "name": "citizenName",
          "type": "string"
        },
        {
          "internalType": "uint256",
          "name": "citizenId",
          "type": "uint256"
        }
      ],
      "payable": false,
      "stateMutability": "view",
      "type": "function"
    },
    {
      "constant": true,
      "inputs": [
        {
          "internalType": "uint256",
          "name": "",
          "type": "uint256"
        }
      ],
      "name": "contracts",
      "outputs": [
        {
          "internalType": "uint256",
          "name": "countyId",
          "type": "uint256"
        },
        {
          "internalType": "uint256",
          "name": "taskId",
          "type": "uint256"
        },
        {
          "internalType": "bool",
          "name": "isIssued",
          "type": "bool"
        },
        {
          "internalType": "uint256",
          "name": "votes",
          "type": "uint256"
        }
      ],
      "payable": false,
      "stateMutability": "view",
      "type": "function"
    },
    {
      "constant": true,
      "inputs": [
        {
          "internalType": "uint256",
          "name": "",
          "type": "uint256"
        }
      ],
      "name": "countys",
      "outputs": [
        {
          "internalType": "address",
          "name": "countyAddress",
          "type": "address"
        },
        {
          "internalType": "string",
          "name": "countyTitle",
          "type": "string"
        },
        {
          "internalType": "uint256",
          "name": "countyId",
          "type": "uint256"
        }
      ],
      "payable": false,
      "stateMutability": "view",
      "type": "function"
    },
    {
      "constant": true,
      "inputs": [
        {
          "internalType": "uint256",
          "name": "",
          "type": "uint256"
        }
      ],
      "name": "payments",
      "outputs": [
        {
          "internalType": "address",
          "name": "to",
          "type": "address"
        },
        {
          "internalType": "uint256",
          "name": "cost",
          "type": "uint256"
        }
      ],
      "payable": false,
      "stateMutability": "view",
      "type": "function"
    },
    {
      "constant": true,
      "inputs": [
        {
          "internalType": "uint256",
          "name": "",
          "type": "uint256"
        }
      ],
      "name": "proposals",
      "outputs": [
        {
          "internalType": "uint256",
          "name": "organizationId",
          "type": "uint256"
        },
        {
          "internalType": "uint256",
          "name": "contId",
          "type": "uint256"
        },
        {
          "internalType": "uint256",
          "name": "costEstimate",
          "type": "uint256"
        },
        {
          "internalType": "string",
          "name": "proposalDescription",
          "type": "string"
        },
        {
          "internalType": "string",
          "name": "proposalTitle",
          "type": "string"
        },
        {
          "internalType": "bool",
          "name": "is_awarded",
          "type": "bool"
        }
      ],
      "payable": false,
      "stateMutability": "view",
      "type": "function"
    },
    {
      "constant": true,
      "inputs": [],
      "name": "state_gov",
      "outputs": [
        {
          "internalType": "address",
          "name": "",
          "type": "address"
        }
      ],
      "payable": false,
      "stateMutability": "view",
      "type": "function"
    },
    {
      "constant": true,
      "inputs": [
        {
          "internalType": "uint256",
          "name": "",
          "type": "uint256"
        }
      ],
      "name": "tasks",
      "outputs": [
        {
          "internalType": "uint256",
          "name": "taskId",
          "type": "uint256"
        },
        {
          "internalType": "string",
          "name": "taskTitle",
          "type": "string"
        },
        {
          "internalType": "uint256",
          "name": "propId",
          "type": "uint256"
        },
        {
          "internalType": "uint256",
          "name": "numVotes",
          "type": "uint256"
        },
        {
          "internalType": "uint256",
          "name": "status",
          "type": "uint256"
        },
        {
          "internalType": "bool",
          "name": "is_completed",
          "type": "bool"
        }
      ],
      "payable": false,
      "stateMutability": "view",
      "type": "function"
    },
    {
      "constant": true,
      "inputs": [
        {
          "internalType": "uint256",
          "name": "",
          "type": "uint256"
        }
      ],
      "name": "votes",
      "outputs": [
        {
          "internalType": "uint256",
          "name": "contId",
          "type": "uint256"
        },
        {
          "internalType": "uint256",
          "name": "vote_points",
          "type": "uint256"
        }
      ],
      "payable": false,
      "stateMutability": "view",
      "type": "function"
    },
    {
      "constant": false,
      "inputs": [
        {
          "internalType": "uint256",
          "name": "task_id",
          "type": "uint256"
        },
        {
          "internalType": "string",
          "name": "task_title",
          "type": "string"
        }
      ],
      "name": "registerTask",
      "outputs": [],
      "payable": false,
      "stateMutability": "nonpayable",
      "type": "function"
    },
    {
      "constant": false,
      "inputs": [
        {
          "internalType": "address",
          "name": "county_address",
          "type": "address"
        },
        {
          "internalType": "uint256",
          "name": "county_Id",
          "type": "uint256"
        },
        {
          "internalType": "string",
          "name": "county_Title",
          "type": "string"
        }
      ],
      "name": "registerCounty",
      "outputs": [],
      "payable": false,
      "stateMutability": "nonpayable",
      "type": "function"
    },
    {
      "constant": false,
      "inputs": [
        {
          "internalType": "uint256",
          "name": "task_id",
          "type": "uint256"
        },
        {
          "internalType": "uint256",
          "name": "county_id",
          "type": "uint256"
        }
      ],
      "name": "passContract",
      "outputs": [],
      "payable": false,
      "stateMutability": "nonpayable",
      "type": "function"
    },
    {
      "constant": false,
      "inputs": [
        {
          "internalType": "address payable",
          "name": "org_address",
          "type": "address"
        },
        {
          "internalType": "uint256",
          "name": "org_Id",
          "type": "uint256"
        },
        {
          "internalType": "string",
          "name": "org_title",
          "type": "string"
        }
      ],
      "name": "registerOrganization",
      "outputs": [],
      "payable": false,
      "stateMutability": "nonpayable",
      "type": "function"
    },
    {
      "constant": false,
      "inputs": [
        {
          "internalType": "uint256",
          "name": "cont_id",
          "type": "uint256"
        }
      ],
      "name": "issueContract",
      "outputs": [],
      "payable": false,
      "stateMutability": "nonpayable",
      "type": "function"
    },
    {
      "constant": false,
      "inputs": [
        {
          "internalType": "uint256",
          "name": "org_Id",
          "type": "uint256"
        },
        {
          "internalType": "uint256",
          "name": "cont_Id",
          "type": "uint256"
        },
        {
          "internalType": "string",
          "name": "prop_Desc",
          "type": "string"
        },
        {
          "internalType": "string",
          "name": "prop_Title",
          "type": "string"
        },
        {
          "internalType": "uint256",
          "name": "cost",
          "type": "uint256"
        }
      ],
      "name": "registerProposal",
      "outputs": [],
      "payable": false,
      "stateMutability": "nonpayable",
      "type": "function"
    },
    {
      "constant": false,
      "inputs": [
        {
          "internalType": "uint256",
          "name": "cont_Id",
          "type": "uint256"
        },
        {
          "internalType": "uint256",
          "name": "prop_Id",
          "type": "uint256"
        }
      ],
      "name": "winningProposal",
      "outputs": [],
      "payable": false,
      "stateMutability": "nonpayable",
      "type": "function"
    },
    {
      "constant": false,
      "inputs": [
        {
          "internalType": "address",
          "name": "cit_address",
          "type": "address"
        },
        {
          "internalType": "uint256",
          "name": "cit_Id",
          "type": "uint256"
        },
        {
          "internalType": "string",
          "name": "cit_Name",
          "type": "string"
        }
      ],
      "name": "registerCitizen",
      "outputs": [],
      "payable": false,
      "stateMutability": "nonpayable",
      "type": "function"
    },
    {
      "constant": false,
      "inputs": [
        {
          "internalType": "uint256",
          "name": "cont_Id",
          "type": "uint256"
        },
        {
          "internalType": "bool",
          "name": "vote",
          "type": "bool"
        }
      ],
      "name": "taskingVote",
      "outputs": [],
      "payable": false,
      "stateMutability": "nonpayable",
      "type": "function"
    },
    {
      "constant": true,
      "inputs": [
        {
          "internalType": "uint256",
          "name": "cont_id",
          "type": "uint256"
        }
      ],
      "name": "verifyCompletion",
      "outputs": [
        {
          "internalType": "bool",
          "name": "",
          "type": "bool"
        }
      ],
      "payable": false,
      "stateMutability": "view",
      "type": "function"
    },
    {
      "constant": false,
      "inputs": [
        {
          "internalType": "uint256",
          "name": "cont_id",
          "type": "uint256"
        }
      ],
      "name": "payment",
      "outputs": [],
      "payable": false,
      "stateMutability": "nonpayable",
      "type": "function"
    }
  ],
  "bytecode": "0x60806040526040518060400160405280600781526020017f436974697a656e000000000000000000000000000000000000000000000000008152506000908051906020019062000051929190620000b0565b5060006002553480156200006457600080fd5b506001600b60003373ffffffffffffffffffffffffffffffffffffffff1673ffffffffffffffffffffffffffffffffffffffff168152602001908152602001600020819055506200015f565b828054600181600116156101000203166002900490600052602060002090601f016020900481019282601f10620000f357805160ff191683800117855562000124565b8280016001018555821562000124579182015b828111156200012357825182559160200191906001019062000106565b5b50905062000133919062000137565b5090565b6200015c91905b80821115620001585760008160009055506001016200013e565b5090565b90565b6123f5806200016f6000396000f3fe608060405234801561001057600080fd5b506004361061012c5760003560e01c806387d81789116100ad578063a07d7bb811610071578063a07d7bb814610a62578063adbaa03d14610b47578063cc9fb47d14610b7f578063ccdef11014610c44578063dd07508714610c8a5761012c565b806387d81789146107475780638b3c99e3146107bc5780638d977672146107ea5780639551e091146108b85780639eaaa84c146108f25761012c565b806343e29d72116100f457806343e29d7214610558578063474da79a1461058657806357bde194146105e15780635df81330146106c657806383dc50481461070f5761012c565b8063013cf08b14610131578063068df3dd1461026457806309a34f001461034c578063103349d51461042d57806327afbbee1461050e575b600080fd5b61015d6004803603602081101561014757600080fd5b8101908080359060200190929190505050610d6f565b60405180878152602001868152602001858152602001806020018060200184151515158152602001838103835286818151815260200191508051906020019080838360005b838110156101bd5780820151818401526020810190506101a2565b50505050905090810190601f1680156101ea5780820380516001836020036101000a031916815260200191505b50838103825285818151815260200191508051906020019080838360005b83811015610223578082015181840152602081019050610208565b50505050905090810190601f1680156102505780820380516001836020036101000a031916815260200191505b509850505050505050505060405180910390f35b6102906004803603602081101561027a57600080fd5b8101908080359060200190929190505050610ef5565b604051808573ffffffffffffffffffffffffffffffffffffffff1673ffffffffffffffffffffffffffffffffffffffff16815260200180602001848152602001838152602001828103825285818151815260200191508051906020019080838360005b8381101561030e5780820151818401526020810190506102f3565b50505050905090810190601f16801561033b5780820380516001836020036101000a031916815260200191505b509550505050505060405180910390f35b6103786004803603602081101561036257600080fd5b8101908080359060200190929190505050610fea565b604051808473ffffffffffffffffffffffffffffffffffffffff1673ffffffffffffffffffffffffffffffffffffffff16815260200180602001838152602001828103825284818151815260200191508051906020019080838360005b838110156103f05780820151818401526020810190506103d5565b50505050905090810190601f16801561041d5780820380516001836020036101000a031916815260200191505b5094505050505060405180910390f35b6104596004803603602081101561044357600080fd5b81019080803590602001909291905050506110d9565b604051808473ffffffffffffffffffffffffffffffffffffffff1673ffffffffffffffffffffffffffffffffffffffff16815260200180602001838152602001828103825284818151815260200191508051906020019080838360005b838110156104d15780820151818401526020810190506104b6565b50505050905090810190601f1680156104fe5780820380516001836020036101000a031916815260200191505b5094505050505060405180910390f35b6105166111c8565b604051808273ffffffffffffffffffffffffffffffffffffffff1673ffffffffffffffffffffffffffffffffffffffff16815260200191505060405180910390f35b6105846004803603602081101561056e57600080fd5b81019080803590602001909291905050506111ee565b005b6105b26004803603602081101561059c57600080fd5b8101908080359060200190929190505050611274565b604051808581526020018481526020018315151515815260200182815260200194505050505060405180910390f35b6106c4600480360360608110156105f757600080fd5b81019080803573ffffffffffffffffffffffffffffffffffffffff169060200190929190803590602001909291908035906020019064010000000081111561063e57600080fd5b82018360208201111561065057600080fd5b8035906020019184600183028401116401000000008311171561067257600080fd5b91908080601f016020809104026020016040519081016040528093929190818152602001838380828437600081840152601f19601f8201169050808301925050505050505091929192905050506112be565b005b6106f2600480360360208110156106dc57600080fd5b8101908080359060200190929190505050611477565b604051808381526020018281526020019250505060405180910390f35b6107456004803603604081101561072557600080fd5b8101908080359060200190929190803590602001909291905050506114a8565b005b6107736004803603602081101561075d57600080fd5b81019080803590602001909291905050506115e2565b604051808373ffffffffffffffffffffffffffffffffffffffff1673ffffffffffffffffffffffffffffffffffffffff1681526020018281526020019250505060405180910390f35b6107e8600480360360208110156107d257600080fd5b8101908080359060200190929190505050611633565b005b6108166004803603602081101561080057600080fd5b810190808035906020019092919050505061178c565b604051808781526020018060200186815260200185815260200184815260200183151515158152602001828103825287818151815260200191508051906020019080838360005b8381101561087857808201518184015260208101905061085d565b50505050905090810190601f1680156108a55780820380516001836020036101000a031916815260200191505b5097505050505050505060405180910390f35b6108f0600480360360408110156108ce57600080fd5b810190808035906020019092919080351515906020019092919050505061187a565b005b610a60600480360360a081101561090857600080fd5b8101908080359060200190929190803590602001909291908035906020019064010000000081111561093957600080fd5b82018360208201111561094b57600080fd5b8035906020019184600183028401116401000000008311171561096d57600080fd5b91908080601f016020809104026020016040519081016040528093929190818152602001838380828437600081840152601f19601f820116905080830192505050505050509192919290803590602001906401000000008111156109d057600080fd5b8201836020820111156109e257600080fd5b80359060200191846001830284011164010000000083111715610a0457600080fd5b91908080601f016020809104026020016040519081016040528093929190818152602001838380828437600081840152601f19601f82011690508083019250505050505050919291929080359060200190929190505050611b46565b005b610b4560048036036060811015610a7857600080fd5b81019080803573ffffffffffffffffffffffffffffffffffffffff1690602001909291908035906020019092919080359060200190640100000000811115610abf57600080fd5b820183602082011115610ad157600080fd5b80359060200191846001830284011164010000000083111715610af357600080fd5b91908080601f016020809104026020016040519081016040528093929190818152602001838380828437600081840152601f19601f820116905080830192505050505050509192919290505050611cf5565b005b610b7d60048036036040811015610b5d57600080fd5b810190808035906020019092919080359060200190929190505050611ede565b005b610c4260048036036040811015610b9557600080fd5b810190808035906020019092919080359060200190640100000000811115610bbc57600080fd5b820183602082011115610bce57600080fd5b80359060200191846001830284011164010000000083111715610bf057600080fd5b91908080601f016020809104026020016040519081016040528093929190818152602001838380828437600081840152601f19601f820116905080830192505050505050509192919290505050611ffe565b005b610c7060048036036020811015610c5a57600080fd5b810190808035906020019092919050505061216a565b604051808215151515815260200191505060405180910390f35b610d6d60048036036060811015610ca057600080fd5b81019080803573ffffffffffffffffffffffffffffffffffffffff1690602001909291908035906020019092919080359060200190640100000000811115610ce757600080fd5b820183602082011115610cf957600080fd5b80359060200191846001830284011164010000000083111715610d1b57600080fd5b91908080601f016020809104026020016040519081016040528093929190818152602001838380828437600081840152601f19601f820116905080830192505050505050509192919290505050612200565b005b60058181548110610d7c57fe5b9060005260206000209060060201600091509050806000015490806001015490806002015490806003018054600181600116156101000203166002900480601f016020809104026020016040519081016040528092919081815260200182805460018160011615610100020316600290048015610e3a5780601f10610e0f57610100808354040283529160200191610e3a565b820191906000526020600020905b815481529060010190602001808311610e1d57829003601f168201915b505050505090806004018054600181600116156101000203166002900480601f016020809104026020016040519081016040528092919081815260200182805460018160011615610100020316600290048015610ed85780601f10610ead57610100808354040283529160200191610ed8565b820191906000526020600020905b815481529060010190602001808311610ebb57829003601f168201915b5050505050908060050160009054906101000a900460ff16905086565b60078181548110610f0257fe5b90600052602060002090600502016000915090508060000160009054906101000a900473ffffffffffffffffffffffffffffffffffffffff1690806001018054600181600116156101000203166002900480601f016020809104026020016040519081016040528092919081815260200182805460018160011615610100020316600290048015610fd45780601f10610fa957610100808354040283529160200191610fd4565b820191906000526020600020905b815481529060010190602001808311610fb757829003601f168201915b5050505050908060020154908060030154905084565b60068181548110610ff757fe5b90600052602060002090600302016000915090508060000160009054906101000a900473ffffffffffffffffffffffffffffffffffffffff1690806001018054600181600116156101000203166002900480601f0160208091040260200160405190810160405280929190818152602001828054600181600116156101000203166002900480156110c95780601f1061109e576101008083540402835291602001916110c9565b820191906000526020600020905b8154815290600101906020018083116110ac57829003601f168201915b5050505050908060020154905083565b600381815481106110e657fe5b90600052602060002090600402016000915090508060000160009054906101000a900473ffffffffffffffffffffffffffffffffffffffff1690806001018054600181600116156101000203166002900480601f0160208091040260200160405190810160405280929190818152602001828054600181600116156101000203166002900480156111b85780601f1061118d576101008083540402835291602001916111b8565b820191906000526020600020905b81548152906001019060200180831161119b57829003601f168201915b5050505050908060020154905083565b600160009054906101000a900473ffffffffffffffffffffffffffffffffffffffff1681565b6002600b60003373ffffffffffffffffffffffffffffffffffffffff1673ffffffffffffffffffffffffffffffffffffffff168152602001908152602001600020541461123a57600080fd5b60016009828154811061124957fe5b906000526020600020906006020160020160006101000a81548160ff02191690831515021790555050565b6009818154811061128157fe5b90600052602060002090600602016000915090508060000154908060010154908060020160009054906101000a900460ff16908060030154905084565b600160009054906101000a900473ffffffffffffffffffffffffffffffffffffffff1673ffffffffffffffffffffffffffffffffffffffff163373ffffffffffffffffffffffffffffffffffffffff161461131857600080fd5b6060600360405180608001604052808673ffffffffffffffffffffffffffffffffffffffff168152602001848152602001858152602001838152509080600181540180825580915050906001820390600052602060002090600402016000909192909190915060008201518160000160006101000a81548173ffffffffffffffffffffffffffffffffffffffff021916908373ffffffffffffffffffffffffffffffffffffffff16021790555060208201518160010190805190602001906113e19291906122ce565b5060408201518160020155606082015181600301908051906020019061140892919061234e565b50505050600160038054905003600d6000858152602001908152602001600020819055506002600b60008673ffffffffffffffffffffffffffffffffffffffff1673ffffffffffffffffffffffffffffffffffffffff1681526020019081526020016000208190555050505050565b6008818154811061148457fe5b90600052602060002090600202016000915090508060000154908060010154905082565b600160009054906101000a900473ffffffffffffffffffffffffffffffffffffffff1673ffffffffffffffffffffffffffffffffffffffff163373ffffffffffffffffffffffffffffffffffffffff161461150257600080fd5b600080905060008090505b6009848154811061151a57fe5b90600052602060002090600602016004018054905081101561158357826009858154811061154457fe5b9060005260206000209060060201600401828154811061156057fe5b9060005260206000200154141561157657600191505b808060010191505061150d565b508061158e57600080fd5b60016005838154811061159d57fe5b906000526020600020906006020160050160006101000a81548160ff02191690831515021790555081600c600085815260200190815260200160002081905550505050565b600a81815481106115ef57fe5b90600052602060002090600202016000915090508060000160009054906101000a900473ffffffffffffffffffffffffffffffffffffffff16908060010154905082565b61163c8161216a565b61164557600080fd5b600a6040518060400160405280600e60006005600c6000888152602001908152602001600020548154811061167657fe5b906000526020600020906006020160000154815260200190815260200160002060000160009054906101000a900473ffffffffffffffffffffffffffffffffffffffff1673ffffffffffffffffffffffffffffffffffffffff1681526020016005600c600086815260200190815260200160002054815481106116f557fe5b9060005260206000209060060201600201548152509080600181540180825580915050906001820390600052602060002090600202016000909192909190915060008201518160000160006101000a81548173ffffffffffffffffffffffffffffffffffffffff021916908373ffffffffffffffffffffffffffffffffffffffff1602179055506020820151816001015550505050565b6004818154811061179957fe5b9060005260206000209060070201600091509050806000015490806001018054600181600116156101000203166002900480601f01602080910402602001604051908101604052809291908181526020018280546001816001161561010002031660029004801561184b5780601f106118205761010080835404028352916020019161184b565b820191906000526020600020905b81548152906001019060200180831161182e57829003601f168201915b5050505050908060020154908060030154908060040154908060050160009054906101000a900460ff16905086565b6002600b60003373ffffffffffffffffffffffffffffffffffffffff1673ffffffffffffffffffffffffffffffffffffffff16815260200190815260200160002054148061190757506004600b60003373ffffffffffffffffffffffffffffffffffffffff1673ffffffffffffffffffffffffffffffffffffffff16815260200190815260200160002054145b801561193b57506009828154811061191b57fe5b906000526020600020906006020160020160009054906101000a900460ff165b80156119ad57506009828154811061194f57fe5b906000526020600020906006020160050160003373ffffffffffffffffffffffffffffffffffffffff1673ffffffffffffffffffffffffffffffffffffffff16815260200190815260200160002060009054906101000a900460ff16155b6119b657600080fd5b6000600190506002600b60003373ffffffffffffffffffffffffffffffffffffffff1673ffffffffffffffffffffffffffffffffffffffff168152602001908152602001600020541415611a0957600590505b6008604051806040016040528085815260200183815250908060018154018082558091505090600182039060005260206000209060020201600090919290919091506000820151816000015560208201518160010155505050600160098481548110611a7157fe5b906000526020600020906006020160050160003373ffffffffffffffffffffffffffffffffffffffff1673ffffffffffffffffffffffffffffffffffffffff16815260200190815260200160002060006101000a81548160ff021916908315150217905550600115158215151415611b14578060098481548110611af157fe5b906000526020600020906006020160030160008282540192505081905550611b41565b8060098481548110611b2257fe5b9060005260206000209060060201600301600082825403925050819055505b505050565b6003600b60003373ffffffffffffffffffffffffffffffffffffffff1673ffffffffffffffffffffffffffffffffffffffff16815260200190815260200160002054148015611bbd575060098481548110611b9d57fe5b906000526020600020906006020160020160009054906101000a900460ff165b611bc657600080fd5b60056040518060c0016040528087815260200186815260200183815260200185815260200184815260200160001515815250908060018154018082558091505090600182039060005260206000209060060201600090919290919091506000820151816000015560208201518160010155604082015181600201556060820151816003019080519060200190611c5d9291906122ce565b506080820151816004019080519060200190611c7a9291906122ce565b5060a08201518160050160006101000a81548160ff02191690831515021790555050505060098481548110611cab57fe5b906000526020600020906006020160040160016005805490500390806001815401808255809150509060018203906000526020600020016000909192909190915055505050505050565b600160009054906101000a900473ffffffffffffffffffffffffffffffffffffffff1673ffffffffffffffffffffffffffffffffffffffff163373ffffffffffffffffffffffffffffffffffffffff1614611d4f57600080fd5b600660405180606001604052808573ffffffffffffffffffffffffffffffffffffffff168152602001838152602001848152509080600181540180825580915050906001820390600052602060002090600302016000909192909190915060008201518160000160006101000a81548173ffffffffffffffffffffffffffffffffffffffff021916908373ffffffffffffffffffffffffffffffffffffffff1602179055506020820151816001019080519060200190611e109291906122ce565b50604082015181600201555050506001600680549050036011826040518082805190602001908083835b60208310611e5d5780518252602082019150602081019050602083039250611e3a565b6001836020036101000a0380198251168184511680821785525050505050509050019150509081526020016040518091039020819055506004600b60008573ffffffffffffffffffffffffffffffffffffffff1673ffffffffffffffffffffffffffffffffffffffff16815260200190815260200160002081905550505050565b606060096040518060a00160405280848152602001858152602001600015158152602001600081526020018381525090806001815401808255809150509060018203906000526020600020906006020160009091929091909150600082015181600001556020820151816001015560408201518160020160006101000a81548160ff021916908315150217905550606082015181600301556080820151816004019080519060200190611f9292919061234e565b505050506003600d60008481526020019081526020016000205481548110611fb657fe5b90600052602060002090600402016003016001600980549050039080600181540180825580915050906001820390600052602060002001600090919290919091505550505050565b600160009054906101000a900473ffffffffffffffffffffffffffffffffffffffff1673ffffffffffffffffffffffffffffffffffffffff163373ffffffffffffffffffffffffffffffffffffffff161461205857600080fd5b606060046040518060e0016040528085815260200184815260200160008152602001600081526020016000815260200160001515815260200183815250908060018154018082558091505090600182039060005260206000209060070201600090919290919091506000820151816000015560208201518160010190805190602001906120e69291906122ce565b5060408201518160020155606082015181600301556080820151816004015560a08201518160050160006101000a81548160ff02191690831515021790555060c082015181600601908051906020019061214192919061234e565b50505050600160048054905003600f600085815260200190815260200160002081905550505050565b6000600160009054906101000a900473ffffffffffffffffffffffffffffffffffffffff1673ffffffffffffffffffffffffffffffffffffffff163373ffffffffffffffffffffffffffffffffffffffff16146121c657600080fd5b6000600983815481106121d557fe5b90600052602060002090600602016003015411156121f657600190506121fb565b600090505b919050565b60405180606001604052808473ffffffffffffffffffffffffffffffffffffffff16815260200183815260200182815250600e6000600254815260200190815260200160002060008201518160000160006101000a81548173ffffffffffffffffffffffffffffffffffffffff021916908373ffffffffffffffffffffffffffffffffffffffff1602179055506020820151816001015560408201518160020190805190602001906122b39291906122ce565b50905050600260008154809291906001019190505550505050565b828054600181600116156101000203166002900490600052602060002090601f016020900481019282601f1061230f57805160ff191683800117855561233d565b8280016001018555821561233d579182015b8281111561233c578251825591602001919060010190612321565b5b50905061234a919061239b565b5090565b82805482825590600052602060002090810192821561238a579160200282015b8281111561238957825182559160200191906001019061236e565b5b509050612397919061239b565b5090565b6123bd91905b808211156123b95760008160009055506001016123a1565b5090565b9056fea265627a7a72315820cc67669e0524046e35bfb0284ad6892a29b120559e79a58e6944e9be19a200ef64736f6c63430005100032",
  "source": "// SPDX-License-Identifier: GPL-3.0\r\n\r\npragma solidity >=0.5.0 <0.7.0;\r\n\r\ncontract citizen\r\n{\r\n    \r\n    string name = 'Citizen';\r\n    address public state_gov;// The address of the state government\r\n    uint internal organizationsLength = 0;\r\n\r\n    // Definition of a proposal\r\n    struct Proposal\r\n    {\r\n        uint organizationId;         // Id of organization submitting the proposal\r\n        uint contId;                 // Id of the proposal\r\n        uint costEstimate;           // Estimated cost of this proposal\r\n        string proposalDescription;  // A description of the proposal\r\n        string proposalTitle;        // Title of the proposal\r\n        bool is_awarded;\r\n\r\n        /*uint duration; // in months\r\n          uint epoch; // in seconds\r\n        */\r\n\r\n    }\r\n\r\n    // Definition of a task\r\n    struct Task\r\n    {\r\n       uint taskId;     //Id of the task\r\n       string taskTitle;    //Title of the task\r\n       /*\r\n       string taskDescription;      // a description of the task\r\n       */\r\n\r\n       uint propId; // proposal chosen for this taskDescription\r\n       uint numVotes;\r\n       uint status;// (0-100) level of completion\r\n       bool is_completed ;\r\n\r\n       /*\r\n       uint propSubmisssionDeadline;\r\n       uint executionDeadline;\r\n       */\r\n       uint[] taskProposalsId;// proposalId's of proposals received for the given task\r\n\r\n    }\r\n\r\n\r\n    struct Organization\r\n    {\r\n        address payable organizationAddress;// hash key for org\r\n        uint organizationId;\r\n        string organizationTitle;\r\n        // uint[] organizationProposalsId; // proposalId's of proposals submitted by this organization\r\n    }\r\n\r\n    //Definition of county\r\n    struct County\r\n    {\r\n        address countyAddress; // hash key for county\r\n        string countyTitle;    // title of county\r\n        uint countyId;        // Id of county\r\n        uint[] countyTasksId; // List of Ids of tasks involved with county\r\n    }\r\n\r\n    //Definition of Contract\r\n    struct Contract {\r\n        uint countyId;    // Id of county involved with Contract\r\n        uint taskId;    // Id of task for which contract is registred\r\n        bool isIssued;\r\n        uint votes;\r\n        uint[] ProposalIds;\r\n        mapping (address => bool) voted;\r\n    }\r\n\r\n    // Definition of Vote\r\n    struct Vote\r\n    {\r\n        uint contId;    // contract for which votes are being cast\r\n        uint vote_points; // vote points voted\r\n    }\r\n\r\n    //Definition of citizen\r\n    struct Citizen\r\n    {\r\n        address citizenAddress; // Address if the citizen\r\n        string citizenName;\r\n        uint citizenId;\r\n        // indices of votes which this citizen has cast votes for\r\n    }\r\n\r\n    // Definition of Authority\r\n    struct Authority\r\n    {\r\n        address authorityAddress;\r\n        string authorityName;\r\n        uint authorityId;\r\n        uint authWeight;\r\n        uint[] authVote;\r\n    }\r\n\r\n    //Definition of payment\r\n    struct Payment\r\n    {\r\n        address to; //Address of receiver\r\n        uint cost;  // Amount Payed\r\n    }\r\n\r\n    County[] public countys; //List of Countys registered with state\r\n    Task[] public tasks;    //List of Tasks registered with state\r\n    // Organization[] public organizations;    //List of Organizations registered with state\r\n    Proposal[] public proposals;    //List of Proposals registered by the Organizations\r\n    Citizen[] public citizens;      // List of Citizens enrolled with state\r\n    Authority[] public auths;       //List of Authorities enrolled with state\r\n    Vote[] public votes;            //List of votes cast about task completion\r\n    Contract[] public contracts;    //List of contracts registered\r\n    Payment[] public payments;      //List of payments tansacted\r\n    mapping(address => uint) tag;   //A Dictionary of address mapped to respective category of user\r\n                                    // i.e , state_gov - 1, county -2, organization -3, citizen -4\r\n    mapping(uint => uint) winners;  // List consisting of organizations which have been awarded contracts\r\n    //mapping(address => bool) voted;\r\n\r\n    // Dictionary from id's to array indices\r\n    mapping(uint => uint) countyMap;// countydId  to index in county\r\n    mapping(uint => Organization) internal organizations; // orgI to index in organizations\r\n    mapping(uint => uint) taskMap;// taskId to index in tasks\r\n    mapping(uint => uint) propMap;// propId to index in proposals\r\n    mapping(string => uint) citiMap;// citiId to index in citizens\r\n\r\n\r\n    //mapping(uint => bool) // mapping from contract Id to bool\r\n\r\n\r\n    constructor() public\r\n    {\r\n        // state_gov = msg.sender;\r\n        tag[msg.sender] = 1;\r\n    }\r\n\r\n    function registerTask(uint task_id, string memory task_title) public\r\n    {\r\n        require(msg.sender == state_gov);\r\n        uint[] memory empArr;\r\n        tasks.push(Task({taskId:task_id, taskTitle:task_title, numVotes:0, propId:0, status:0, is_completed: false, taskProposalsId:empArr}));\r\n        taskMap[task_id] = tasks.length-1;\r\n    }\r\n\r\n    // Registering a County\r\n    function registerCounty(address county_address, uint county_Id, string memory county_Title) public\r\n    {\r\n\r\n        require(msg.sender == state_gov);\r\n        uint[] memory empArr;\r\n        countys.push(County({ countyAddress:county_address, countyId: county_Id, countyTitle:county_Title, countyTasksId:empArr}));\r\n        countyMap[county_Id] = countys.length - 1;\r\n        tag[county_address] = 2;\r\n    }\r\n    // Passing a contract from state government to a particular county\r\n    function passContract(uint task_id, uint county_id) public\r\n    {\r\n        uint[] memory emp;\r\n        contracts.push(Contract({countyId: county_id, taskId: task_id, isIssued: false, votes: 0, ProposalIds: emp}));\r\n        countys[countyMap[county_id]].countyTasksId.push(contracts.length-1);\r\n    }\r\n\r\n    // Registering organizations with the state governments\r\n    function registerOrganization(address payable org_address, uint org_Id, string memory org_title) public\r\n    {\r\n        organizations[organizationsLength] = Organization( org_address, org_Id, org_title);\r\n        organizationsLength++;\r\n        // require(msg.sender == state_gov);\r\n        // uint[] memory empArr;\r\n        // organizations.push(Organization({organizationAddress:org_address, organizationId:org_Id, organizationTitle: org_title, organizationProposalsId:empArr}));\r\n\r\n        // orgMap[org_Id] = organizations.length-1;\r\n        // tag[org_address] = 3;\r\n    }\r\n\r\n    //Issue a particular contract\r\n    function issueContract(uint cont_id) public\r\n    {\r\n        require(tag[msg.sender] == 2);\r\n        contracts[cont_id].isIssued = true;\r\n    }\r\n\r\n    //Registering new proposals\r\n    function registerProposal(uint org_Id, uint cont_Id, string memory prop_Desc, string memory prop_Title, uint cost) public\r\n    {\r\n        require(tag[msg.sender] == 3 && contracts[cont_Id].isIssued);\r\n\r\n        proposals.push(Proposal({organizationId:org_Id, contId:cont_Id, is_awarded:false, proposalDescription:prop_Desc, proposalTitle:prop_Title, costEstimate: cost}));\r\n        contracts[cont_Id].ProposalIds.push(proposals.length-1);\r\n\r\n        // the current proposal has to be added to the respective organization\r\n        // organizations[orgMap[org_Id]].organizationProposalsId.push(proposals.length-1);\r\n\r\n    }\r\n\r\n    //Choosing the winning Proposal\r\n    function winningProposal(uint cont_Id, uint prop_Id) public\r\n    {\r\n        require(msg.sender==state_gov);\r\n        bool found = false;\r\n        for (uint i = 0; i < contracts[cont_Id].ProposalIds.length; i++)\r\n            if (contracts[cont_Id].ProposalIds[i] == prop_Id)\r\n                found = true;\r\n        require(found);\r\n        proposals[prop_Id].is_awarded = true;\r\n        winners[cont_Id] = prop_Id;\r\n    }\r\n\r\n    //Registering new Citizens\r\n    function registerCitizen(address cit_address, uint cit_Id, string memory cit_Name) public\r\n    {\r\n        require(msg.sender == state_gov);\r\n        citizens.push(Citizen({citizenAddress:cit_address, citizenName: cit_Name, citizenId: cit_Id}));\r\n        citiMap[cit_Name] = citizens.length-1;\r\n        tag[cit_address] = 4;\r\n    }\r\n\r\n    // Accepting Votes for a particular task\r\n    function taskingVote(uint cont_Id,bool vote) public\r\n    {\r\n        // ensuring that the vote is cast by either a citizen or government and the contract is issued\r\n        require((tag[msg.sender] == 2 || tag[msg.sender] == 4 ) && contracts[cont_Id].isIssued && !contracts[cont_Id].voted[msg.sender]);\r\n\r\n        /*\r\n        TODO :\r\n            1. Take care of case when votes are being cast for task that is not awarded yet\r\n            2. Take care of citizen voting on the same task multiple times\r\n        //*/\r\n        uint weight = 1;\r\n        if (tag[msg.sender] == 2)\r\n            weight = 5;\r\n\r\n        votes.push(Vote({ contId:cont_Id, vote_points:weight}));\r\n\r\n        contracts[cont_Id].voted[msg.sender] = true;\r\n\r\n        if (vote == true)\r\n            contracts[cont_Id].votes += weight;\r\n        else\r\n            contracts[cont_Id].votes -= weight;\r\n\r\n    }\r\n\r\n    // Function to verify completion of the contract\r\n    function verifyCompletion(uint cont_id) view public returns (bool)\r\n    {\r\n        require(msg.sender==state_gov);\r\n        if (contracts[cont_id].votes > 0)\r\n            return true;\r\n        else\r\n            return false;\r\n    }\r\n\r\n    //Function to pay the organization post completion of contract\r\n    function payment (uint cont_id) public\r\n    {\r\n        // payment can be done only by the state_gov\r\n\r\n        require(verifyCompletion(cont_id));\r\n        payments.push(Payment(organizations[proposals[winners[cont_id]].organizationId].organizationAddress, proposals[winners[cont_id]].costEstimate));\r\n    }\r\n\r\n\r\n\r\n}",
  "sourcePath": "C:/Users/Jordan/Desktop/Citizen_Dapp/contracts/Citizen.sol",
  "compiler": {
    "name": "solc",
    "version": "0.5.16+commit.9c3226ce.Emscripten.clang"
  },
  "schemaVersion": "3.3.4",
  "updatedAt": "2021-10-23T05:50:26.617Z",
  "networkType": "ethereum",
  "devdoc": {
    "methods": {}
  },
  "userdoc": {
    "methods": {}
  }
}